{
	"_format": "hh-sol-artifact-1",
	"contractName": "SparkyAccountFactory",
	"sourceName": "contracts/wallet/SparkyAccountFactory.sol",
	"abi": [
		{
			"inputs": [
				{
					"internalType": "contract IEntryPoint",
					"name": "_entryPoint",
					"type": "address"
				},
				{
					"internalType": "address",
					"name": "router",
					"type": "address"
				}
			],
			"stateMutability": "nonpayable",
			"type": "constructor"
		},
		{
			"inputs": [],
			"name": "accountImplementation",
			"outputs": [
				{
					"internalType": "contract SparkyAccount",
					"name": "",
					"type": "address"
				}
			],
			"stateMutability": "view",
			"type": "function"
		},
		{
			"inputs": [
				{
					"internalType": "address",
					"name": "owner",
					"type": "address"
				},
				{
					"internalType": "uint256",
					"name": "salt",
					"type": "uint256"
				}
			],
			"name": "createAccount",
			"outputs": [
				{
					"internalType": "contract SparkyAccount",
					"name": "ret",
					"type": "address"
				}
			],
			"stateMutability": "nonpayable",
			"type": "function"
		},
		{
			"inputs": [
				{
					"internalType": "address",
					"name": "owner",
					"type": "address"
				},
				{
					"internalType": "uint256",
					"name": "salt",
					"type": "uint256"
				}
			],
			"name": "findAddress",
			"outputs": [
				{
					"internalType": "address",
					"name": "",
					"type": "address"
				}
			],
			"stateMutability": "view",
			"type": "function"
		}
	],
	"bytecode": "0x60a060405234801561001057600080fd5b50604051612ea0380380612ea083398101604081905261002f916100aa565b818160405161003d90610085565b6001600160a01b03928316815291166020820152604001604051809103906000f080158015610070573d6000803e3d6000fd5b506001600160a01b0316608052506100e49050565b6122bc80610be483390190565b6001600160a01b03811681146100a757600080fd5b50565b600080604083850312156100bd57600080fd5b82516100c881610092565b60208401519092506100d981610092565b809150509250929050565b608051610ad961010b60003960008181604b0152818160ee01526101ca0152610ad96000f3fe608060405234801561001057600080fd5b50600436106100415760003560e01c806311464fbe146100465780634f1204cc146100895780635fbfb9cf1461009c575b600080fd5b61006d7f000000000000000000000000000000000000000000000000000000000000000081565b6040516001600160a01b03909116815260200160405180910390f35b61006d610097366004610295565b6100af565b61006d6100aa366004610295565b61018c565b60006101838260001b604051806020016100c890610288565b601f1982820381018352601f9091011660408190526001600160a01b03871660248201527f00000000000000000000000000000000000000000000000000000000000000009060440160408051601f19818403018152918152602080830180516001600160e01b031663189acdbd60e31b179052905161014a939291016102fd565b60408051601f1981840301815290829052610168929160200161033f565b60405160208183030381529060405280519060200120610256565b90505b92915050565b60008061019984846100af565b90506001600160a01b0381163b80156101b457509050610186565b6040516001600160a01b038616602482015284907f00000000000000000000000000000000000000000000000000000000000000009060440160408051601f198184030181529181526020820180516001600160e01b031663189acdbd60e31b1790525161022190610288565b61022c9291906102fd565b8190604051809103906000f590508015801561024c573d6000803e3d6000fd5b5095945050505050565b60006101838383306000604051836040820152846020820152828152600b8101905060ff815360559020949350505050565b6107358061036f83390190565b600080604083850312156102a857600080fd5b82356001600160a01b03811681146102bf57600080fd5b946020939093013593505050565b60005b838110156102e85781810151838201526020016102d0565b838111156102f7576000848401525b50505050565b60018060a01b0383168152604060208201526000825180604084015261032a8160608501602087016102cd565b601f01601f1916919091016060019392505050565b600083516103518184602088016102cd565b8351908301906103658183602088016102cd565b0194935050505056fe60806040526040516107353803806107358339810160408190526100229161031e565b61002e82826000610035565b505061043b565b61003e8361006b565b60008251118061004b5750805b156100665761006483836100ab60201b6100291760201c565b505b505050565b610074816100d7565b6040516001600160a01b038216907fbc7cd75a20ee27fd9adebab32041f755214dbc6bffa90cc0225b39da2e5c2d3b90600090a250565b60606100d0838360405180606001604052806027815260200161070e602791396101a9565b9392505050565b6100ea8161022260201b6100551760201c565b6101515760405162461bcd60e51b815260206004820152602d60248201527f455243313936373a206e657720696d706c656d656e746174696f6e206973206e60448201526c1bdd08184818dbdb9d1c9858dd609a1b60648201526084015b60405180910390fd5b806101887f360894a13ba1a3210667c828492db98dca3e2076cc3735a920a3ca505d382bbc60001b61023160201b6100641760201c565b80546001600160a01b0319166001600160a01b039290921691909117905550565b6060600080856001600160a01b0316856040516101c691906103ec565b600060405180830381855af49150503d8060008114610201576040519150601f19603f3d011682016040523d82523d6000602084013e610206565b606091505b50909250905061021886838387610234565b9695505050505050565b6001600160a01b03163b151590565b90565b606083156102a0578251610299576001600160a01b0385163b6102995760405162461bcd60e51b815260206004820152601d60248201527f416464726573733a2063616c6c20746f206e6f6e2d636f6e74726163740000006044820152606401610148565b50816102aa565b6102aa83836102b2565b949350505050565b8151156102c25781518083602001fd5b8060405162461bcd60e51b81526004016101489190610408565b634e487b7160e01b600052604160045260246000fd5b60005b8381101561030d5781810151838201526020016102f5565b838111156100645750506000910152565b6000806040838503121561033157600080fd5b82516001600160a01b038116811461034857600080fd5b60208401519092506001600160401b038082111561036557600080fd5b818501915085601f83011261037957600080fd5b81518181111561038b5761038b6102dc565b604051601f8201601f19908116603f011681019083821181831017156103b3576103b36102dc565b816040528281528860208487010111156103cc57600080fd5b6103dd8360208301602088016102f2565b80955050505050509250929050565b600082516103fe8184602087016102f2565b9190910192915050565b60208152600082518060208401526104278160408501602087016102f2565b601f01601f19169190910160400192915050565b6102c48061044a6000396000f3fe60806040523661001357610011610017565b005b6100115b610027610022610067565b61009f565b565b606061004e8383604051806060016040528060278152602001610268602791396100c3565b9392505050565b6001600160a01b03163b151590565b90565b600061009a7f360894a13ba1a3210667c828492db98dca3e2076cc3735a920a3ca505d382bbc546001600160a01b031690565b905090565b3660008037600080366000845af43d6000803e8080156100be573d6000f35b3d6000fd5b6060600080856001600160a01b0316856040516100e09190610218565b600060405180830381855af49150503d806000811461011b576040519150601f19603f3d011682016040523d82523d6000602084013e610120565b606091505b50915091506101318683838761013b565b9695505050505050565b606083156101ac5782516101a5576001600160a01b0385163b6101a55760405162461bcd60e51b815260206004820152601d60248201527f416464726573733a2063616c6c20746f206e6f6e2d636f6e747261637400000060448201526064015b60405180910390fd5b50816101b6565b6101b683836101be565b949350505050565b8151156101ce5781518083602001fd5b8060405162461bcd60e51b815260040161019c9190610234565b60005b838110156102035781810151838201526020016101eb565b83811115610212576000848401525b50505050565b6000825161022a8184602087016101e8565b9190910192915050565b60208152600082518060208401526102538160408501602087016101e8565b601f01601f1916919091016040019291505056fe416464726573733a206c6f772d6c6576656c2064656c65676174652063616c6c206661696c6564a2646970667358221220a34771eb090986e51222212e00c1923e164756cf6c8b6bf72b533aa89c99c1d764736f6c634300080c0033416464726573733a206c6f772d6c6576656c2064656c65676174652063616c6c206661696c6564a2646970667358221220a4da368b760af25745835a7a82849967d378e8505fcee86bfac66a2e72fcc01864736f6c634300080c003360e0604052306080523480156200001557600080fd5b50604051620022bc380380620022bc833981016040819052620000389162000137565b6001600160a01b0380831660a052811660c052620000556200005d565b505062000176565b600054610100900460ff1615620000ca5760405162461bcd60e51b815260206004820152602760248201527f496e697469616c697a61626c653a20636f6e747261637420697320696e697469604482015266616c697a696e6760c81b606482015260840160405180910390fd5b60005460ff908116146200011c576000805460ff191660ff9081179091556040519081527f7f26b83ff96e1f2b6a682f133852f6798a09c465da95921460cefb38474024989060200160405180910390a15b565b6001600160a01b03811681146200013457600080fd5b50565b600080604083850312156200014b57600080fd5b825162000158816200011e565b60208401519092506200016b816200011e565b809150509250929050565b60805160a05160c0516120c9620001f36000396000610e5101526000818161032a015281816107050152818161078d01528181610a3201528181610bdc01528181610d8e015281816110cd015261124f015260008181610471015281816104ba015281816108170152818161085701526108ea01526120c96000f3fe6080604052600436106101225760003560e01c806352d1902d116100a0578063bc197c8111610064578063bc197c811461036e578063c399ec881461039d578063c4d66de8146103b2578063d087d288146103d2578063f23a6e61146103e757600080fd5b806352d1902d146102a85780638da5cb5b146102bd578063982ef0a7146102fb578063b0d691fe1461031b578063b61d27f61461034e57600080fd5b80633e28391d116100e75780633e28391d1461021d57806347e1da2a1461024d5780634a58db191461026d5780634d44560d146102755780634f1ef2861461029557600080fd5b806223de291461012e57806301ffc9a714610155578063150b7a021461018a5780633659cfe6146101cf5780633a871cdd146101ef57600080fd5b3661012957005b600080fd5b34801561013a57600080fd5b50610153610149366004611888565b5050505050505050565b005b34801561016157600080fd5b50610175610170366004611938565b610414565b60405190151581526020015b60405180910390f35b34801561019657600080fd5b506101b66101a5366004611962565b630a85bd0160e11b95945050505050565b6040516001600160e01b03199091168152602001610181565b3480156101db57600080fd5b506101536101ea3660046119d4565b610466565b3480156101fb57600080fd5b5061020f61020a3660046119f1565b61054f565b604051908152602001610181565b34801561022957600080fd5b506101756102383660046119d4565b60016020526000908152604090205460ff1681565b34801561025957600080fd5b50610153610268366004611a88565b610575565b610153610703565b34801561028157600080fd5b50610153610290366004611b21565b610783565b6101536102a3366004611bef565b61080c565b3480156102b457600080fd5b5061020f6108dd565b3480156102c957600080fd5b506000546102e3906201000090046001600160a01b031681565b6040516001600160a01b039091168152602001610181565b34801561030757600080fd5b50610153610316366004611c3e565b610990565b34801561032757600080fd5b507f00000000000000000000000000000000000000000000000000000000000000006102e3565b34801561035a57600080fd5b50610153610369366004611c7c565b6109c3565b34801561037a57600080fd5b506101b6610389366004611cd7565b63bc197c8160e01b98975050505050505050565b3480156103a957600080fd5b5061020f610a12565b3480156103be57600080fd5b506101536103cd3660046119d4565b610aa3565b3480156103de57600080fd5b5061020f610bb5565b3480156103f357600080fd5b506101b6610402366004611d74565b63f23a6e6160e01b9695505050505050565b60006001600160e01b03198216630a85bd0160e11b148061044557506001600160e01b03198216630271189760e51b145b8061046057506001600160e01b031982166301ffc9a760e01b145b92915050565b306001600160a01b037f00000000000000000000000000000000000000000000000000000000000000001614156104b85760405162461bcd60e51b81526004016104af90611ddd565b60405180910390fd5b7f00000000000000000000000000000000000000000000000000000000000000006001600160a01b031661050160008051602061204d833981519152546001600160a01b031690565b6001600160a01b0316146105275760405162461bcd60e51b81526004016104af90611e29565b61053081610c0b565b6040805160008082526020820190925261054c91839190610c13565b50565b6000610559610d83565b6105638484610dfd565b905061056e82611075565b9392505050565b61057d6110c2565b8481148015610593575082158061059357508281145b6105d55760405162461bcd60e51b815260206004820152601360248201527277726f6e67206172726179206c656e6774687360681b60448201526064016104af565b826106875760005b858110156106815761066f8787838181106105fa576105fa611e75565b905060200201602081019061060f91906119d4565b600085858581811061062357610623611e75565b90506020028101906106359190611e8b565b8080601f01602080910402602001604051908101604052809392919081815260200183838082843760009201919091525061115592505050565b8061067981611ed1565b9150506105dd565b506106fb565b60005b858110156106f9576106e78787838181106106a7576106a7611e75565b90506020020160208101906106bc91906119d4565b8686848181106106ce576106ce611e75565b9050602002013585858581811061062357610623611e75565b806106f181611ed1565b91505061068a565b505b505050505050565b7f000000000000000000000000000000000000000000000000000000000000000060405163b760faf960e01b81523060048201526001600160a01b03919091169063b760faf99034906024016000604051808303818588803b15801561076857600080fd5b505af115801561077c573d6000803e3d6000fd5b5050505050565b61078b6111c5565b7f000000000000000000000000000000000000000000000000000000000000000060405163040b850f60e31b81526001600160a01b03848116600483015260248201849052919091169063205c287890604401600060405180830381600087803b1580156107f857600080fd5b505af11580156106fb573d6000803e3d6000fd5b306001600160a01b037f00000000000000000000000000000000000000000000000000000000000000001614156108555760405162461bcd60e51b81526004016104af90611ddd565b7f00000000000000000000000000000000000000000000000000000000000000006001600160a01b031661089e60008051602061204d833981519152546001600160a01b031690565b6001600160a01b0316146108c45760405162461bcd60e51b81526004016104af90611e29565b6108cd82610c0b565b6108d982826001610c13565b5050565b6000306001600160a01b037f0000000000000000000000000000000000000000000000000000000000000000161461097d5760405162461bcd60e51b815260206004820152603860248201527f555550535570677261646561626c653a206d757374206e6f742062652063616c60448201527f6c6564207468726f7567682064656c656761746563616c6c000000000000000060648201526084016104af565b5060008051602061204d83398151915290565b6109986110c2565b6001600160a01b03919091166000908152600160205260409020805460ff1916911515919091179055565b6109cb6110c2565b610a0c848484848080601f01602080910402602001604051908101604052809392919081815260200183838082843760009201919091525061115592505050565b50505050565b6040516370a0823160e01b81523060048201526000906001600160a01b037f000000000000000000000000000000000000000000000000000000000000000016906370a08231906024015b602060405180830381865afa158015610a7a573d6000803e3d6000fd5b505050506040513d601f19601f82011682018060405250810190610a9e9190611efa565b905090565b600054610100900460ff1615808015610ac35750600054600160ff909116105b80610add5750303b158015610add575060005460ff166001145b610b405760405162461bcd60e51b815260206004820152602e60248201527f496e697469616c697a61626c653a20636f6e747261637420697320616c72656160448201526d191e481a5b9a5d1a585b1a5e995960921b60648201526084016104af565b6000805460ff191660011790558015610b63576000805461ff0019166101001790555b610b6c8261121c565b80156108d9576000805461ff0019169055604051600181527f7f26b83ff96e1f2b6a682f133852f6798a09c465da95921460cefb38474024989060200160405180910390a15050565b604051631aab3f0d60e11b8152306004820152600060248201819052906001600160a01b037f000000000000000000000000000000000000000000000000000000000000000016906335567e1a90604401610a5d565b61054c6111c5565b7f4910fdfa16fed3260ed0e7147f7cc6da11a60208b5b9406d12a635614ffd91435460ff1615610c4b57610c4683611298565b505050565b826001600160a01b03166352d1902d6040518163ffffffff1660e01b8152600401602060405180830381865afa925050508015610ca5575060408051601f3d908101601f19168201909252610ca291810190611efa565b60015b610d085760405162461bcd60e51b815260206004820152602e60248201527f45524331393637557067726164653a206e657720696d706c656d656e7461746960448201526d6f6e206973206e6f74205555505360901b60648201526084016104af565b60008051602061204d8339815191528114610d775760405162461bcd60e51b815260206004820152602960248201527f45524331393637557067726164653a20756e737570706f727465642070726f786044820152681a58589b195555525160ba1b60648201526084016104af565b50610c46838383611334565b336001600160a01b037f00000000000000000000000000000000000000000000000000000000000000001614610dfb5760405162461bcd60e51b815260206004820152601c60248201527f6163636f756e743a206e6f742066726f6d20456e747279506f696e740000000060448201526064016104af565b565b32600090815260016020819052604082205460ff1615151415610e9957366000610e2a6060860186611e8b565b90925090506000610e3e8260048186611f13565b810190610e4b9190611f3d565b505090507f00000000000000000000000000000000000000000000000000000000000000006001600160a01b0316816001600160a01b03161415610e955760009350505050610460565b5050505b7f1e8464ea489ae26d2999d1736367699663ed31b646d45c1f4f8df681111acd8c600081610ec686611359565b604051602001610ed7929190611fc1565b6040516020818303038152906040528051906020012090506000610fc8604080518082018252600d81526c14dc185c9ade5058d8dbdd5b9d609a1b6020918201528151808301835260018152603160f81b9082015281517f8b73c3c69bb8fe3d512ecc4cf759cc79239f7b179b0ffacaa9a75d522b39400f818301527fd8c51bb1d854c3b08bca0410ece408c3ba182bd49c40dc40858f8d2bbceef71b818401527fc89efdaa54c0f20c7adf612882df0950f5a951637e0307cdcb4c672f298b8bc660608201524660808201523060a0808301919091528351808303909101815260c0909101909252815191012090565b90506000610ff0828460405161190160f01b8152600281019290925260228201526042902090565b9050611040611003610140890189611e8b565b8080601f016020809104026020016040519081016040528093929190818152602001838380828437600092019190915250859392505061141e9050565b6000546201000090046001600160a01b03908116911614611068576001945050505050610460565b5060009695505050505050565b801561054c57604051600090339060001990849084818181858888f193505050503d806000811461077c576040519150601f19603f3d011682016040523d82523d6000602084013e61077c565b336001600160a01b037f000000000000000000000000000000000000000000000000000000000000000016148061110957506000546201000090046001600160a01b031633145b610dfb5760405162461bcd60e51b815260206004820181905260248201527f6163636f756e743a206e6f74204f776e6572206f7220456e747279506f696e7460448201526064016104af565b600080846001600160a01b031684846040516111719190611fe7565b60006040518083038185875af1925050503d80600081146111ae576040519150601f19603f3d011682016040523d82523d6000602084013e6111b3565b606091505b50915091508161077c57805160208201fd5b6000546201000090046001600160a01b03163314806111e357503330145b610dfb5760405162461bcd60e51b815260206004820152600a60248201526937b7363c9037bbb732b960b11b60448201526064016104af565b6000805462010000600160b01b031916620100006001600160a01b038481168202929092178084556040519190048216927f0000000000000000000000000000000000000000000000000000000000000000909216917f9051ce4b0ae6765ece6c9988a016714ea416f2cf51180515fb690adcfcd0d1c991a350565b6001600160a01b0381163b6113055760405162461bcd60e51b815260206004820152602d60248201527f455243313936373a206e657720696d706c656d656e746174696f6e206973206e60448201526c1bdd08184818dbdb9d1c9858dd609a1b60648201526084016104af565b60008051602061204d83398151915280546001600160a01b0319166001600160a01b0392909216919091179055565b61133d83611442565b60008251118061134a5750805b15610c4657610a0c8383611482565b60608135600061137461136f6040860186611e8b565b6114a7565b9050600061138861136f6060870187611e8b565b9050608085013560a086013560c087013560e088013561010089013560006113b761136f6101208d018d611e8b565b604080516001600160a01b039b909b1660208c01528a81019990995260608a019790975250608088019490945260a087019290925260c086015260e08501526101008401526101208084019190915281518084039091018152610140909201905292915050565b600080600061142d85856114ba565b9150915061143a81611500565b509392505050565b61144b81611298565b6040516001600160a01b038216907fbc7cd75a20ee27fd9adebab32041f755214dbc6bffa90cc0225b39da2e5c2d3b90600090a250565b606061056e838360405180606001604052806027815260200161206d6027913961164e565b6000604051828085833790209392505050565b6000808251604114156114f15760208301516040840151606085015160001a6114e5878285856116c6565b945094505050506114f9565b506000905060025b9250929050565b600081600481111561151457611514612003565b141561151d5750565b600181600481111561153157611531612003565b141561157f5760405162461bcd60e51b815260206004820152601860248201527f45434453413a20696e76616c6964207369676e6174757265000000000000000060448201526064016104af565b600281600481111561159357611593612003565b14156115e15760405162461bcd60e51b815260206004820152601f60248201527f45434453413a20696e76616c6964207369676e6174757265206c656e6774680060448201526064016104af565b60038160048111156115f5576115f5612003565b141561054c5760405162461bcd60e51b815260206004820152602260248201527f45434453413a20696e76616c6964207369676e6174757265202773272076616c604482015261756560f01b60648201526084016104af565b6060600080856001600160a01b03168560405161166b9190611fe7565b600060405180830381855af49150503d80600081146116a6576040519150601f19603f3d011682016040523d82523d6000602084013e6116ab565b606091505b50915091506116bc8683838761178a565b9695505050505050565b6000807f7fffffffffffffffffffffffffffffff5d576e7357a4501ddfe92f46681b20a08311156116fd5750600090506003611781565b6040805160008082526020820180845289905260ff881692820192909252606081018690526080810185905260019060a0016020604051602081039080840390855afa158015611751573d6000803e3d6000fd5b5050604051601f1901519150506001600160a01b03811661177a57600060019250925050611781565b9150600090505b94509492505050565b606083156117f65782516117ef576001600160a01b0385163b6117ef5760405162461bcd60e51b815260206004820152601d60248201527f416464726573733a2063616c6c20746f206e6f6e2d636f6e747261637400000060448201526064016104af565b5081611800565b6118008383611808565b949350505050565b8151156118185781518083602001fd5b8060405162461bcd60e51b81526004016104af9190612019565b6001600160a01b038116811461054c57600080fd5b60008083601f84011261185957600080fd5b5081356001600160401b0381111561187057600080fd5b6020830191508360208285010111156114f957600080fd5b60008060008060008060008060c0898b0312156118a457600080fd5b88356118af81611832565b975060208901356118bf81611832565b965060408901356118cf81611832565b95506060890135945060808901356001600160401b03808211156118f257600080fd5b6118fe8c838d01611847565b909650945060a08b013591508082111561191757600080fd5b506119248b828c01611847565b999c989b5096995094979396929594505050565b60006020828403121561194a57600080fd5b81356001600160e01b03198116811461056e57600080fd5b60008060008060006080868803121561197a57600080fd5b853561198581611832565b9450602086013561199581611832565b93506040860135925060608601356001600160401b038111156119b757600080fd5b6119c388828901611847565b969995985093965092949392505050565b6000602082840312156119e657600080fd5b813561056e81611832565b600080600060608486031215611a0657600080fd5b83356001600160401b03811115611a1c57600080fd5b84016101608187031215611a2f57600080fd5b95602085013595506040909401359392505050565b60008083601f840112611a5657600080fd5b5081356001600160401b03811115611a6d57600080fd5b6020830191508360208260051b85010111156114f957600080fd5b60008060008060008060608789031215611aa157600080fd5b86356001600160401b0380821115611ab857600080fd5b611ac48a838b01611a44565b90985096506020890135915080821115611add57600080fd5b611ae98a838b01611a44565b90965094506040890135915080821115611b0257600080fd5b50611b0f89828a01611a44565b979a9699509497509295939492505050565b60008060408385031215611b3457600080fd5b8235611b3f81611832565b946020939093013593505050565b634e487b7160e01b600052604160045260246000fd5b600082601f830112611b7457600080fd5b81356001600160401b0380821115611b8e57611b8e611b4d565b604051601f8301601f19908116603f01168101908282118183101715611bb657611bb6611b4d565b81604052838152866020858801011115611bcf57600080fd5b836020870160208301376000602085830101528094505050505092915050565b60008060408385031215611c0257600080fd5b8235611c0d81611832565b915060208301356001600160401b03811115611c2857600080fd5b611c3485828601611b63565b9150509250929050565b60008060408385031215611c5157600080fd5b8235611c5c81611832565b915060208301358015158114611c7157600080fd5b809150509250929050565b60008060008060608587031215611c9257600080fd5b8435611c9d81611832565b93506020850135925060408501356001600160401b03811115611cbf57600080fd5b611ccb87828801611847565b95989497509550505050565b60008060008060008060008060a0898b031215611cf357600080fd5b8835611cfe81611832565b97506020890135611d0e81611832565b965060408901356001600160401b0380821115611d2a57600080fd5b611d368c838d01611a44565b909850965060608b0135915080821115611d4f57600080fd5b611d5b8c838d01611a44565b909650945060808b013591508082111561191757600080fd5b60008060008060008060a08789031215611d8d57600080fd5b8635611d9881611832565b95506020870135611da881611832565b9450604087013593506060870135925060808701356001600160401b03811115611dd157600080fd5b611b0f89828a01611847565b6020808252602c908201527f46756e6374696f6e206d7573742062652063616c6c6564207468726f7567682060408201526b19195b1959d85d1958d85b1b60a21b606082015260800190565b6020808252602c908201527f46756e6374696f6e206d7573742062652063616c6c6564207468726f7567682060408201526b6163746976652070726f787960a01b606082015260800190565b634e487b7160e01b600052603260045260246000fd5b6000808335601e19843603018112611ea257600080fd5b8301803591506001600160401b03821115611ebc57600080fd5b6020019150368190038213156114f957600080fd5b6000600019821415611ef357634e487b7160e01b600052601160045260246000fd5b5060010190565b600060208284031215611f0c57600080fd5b5051919050565b60008085851115611f2357600080fd5b83861115611f3057600080fd5b5050820193919092039150565b600080600060608486031215611f5257600080fd5b8335611f5d81611832565b92506020840135915060408401356001600160401b03811115611f7f57600080fd5b611f8b86828701611b63565b9150509250925092565b60005b83811015611fb0578181015183820152602001611f98565b83811115610a0c5750506000910152565b82815260008251611fd9816020850160208701611f95565b919091016020019392505050565b60008251611ff9818460208701611f95565b9190910192915050565b634e487b7160e01b600052602160045260246000fd5b6020815260008251806020840152612038816040850160208701611f95565b601f01601f1916919091016040019291505056fe360894a13ba1a3210667c828492db98dca3e2076cc3735a920a3ca505d382bbc416464726573733a206c6f772d6c6576656c2064656c65676174652063616c6c206661696c6564a2646970667358221220360c4e9980190caf91667b797fe44e644ad7fc9c128b32b8519d345d77fd23e264736f6c634300080c0033",
	"linkReferences": {},
	"deployedLinkReferences": {}
}